:100000000200161202297F4F1201691201D5120255
:020010001D22AF
:100013000200A2787FE4F6D8FD75811902005D0223
:10002300010BE493A3F8E493A34003F68001F208E1
:10003300DFF48029E493A3F85407240CC8C333C422
:10004300540F4420C8834004F456800146F6DFE48D
:10005300800B010204081020408090020AE47E0114
:100063009360BCA3FF543F30E509541FFEE493A300
:1000730060010ECF54C025E060A840B8E493A3FA12
:10008300E493A3F8E493A3C8C582C8CAC583CAF09E
:10009300A3C8C582C8CAC583CADFE9DEE780BEC07C
:1000A300E0C0F0C083C082C0D0E8C0E0E9C0E0EAAD
:1000B300C0E0EBC0E0ECC0E0EDC0E0EEC0E0EFC0BC
:1000C300E01200038F18E518540F2408F8E6FF74B4
:1000D30012FE12018EE518C4540F2408F8E6FF74CB
:1000E30013FE12018ED0E0FFD0E0FED0E0FDD0E0A1
:1000F300FCD0E0FBD0E0FAD0E0F9D0E0F8D0D0D0EB
:1001030082D083D0F0D0E0327F321201B9120234B0
:10011300E4F519E519FEE42400FFEE3412FE1201A2
:100123008E0519E519B406EB7F037E0412018EAF29
:10013300097417FE12018EAF0A7416FE12018EAFF8
:100143000B7415FE12018EAF0C7414FE12018EAFE8
:100153000D7413FE12018EAF0E7412FE12018E7F08
:10016300011201F780FEE4FEEF30E704D29680022D
:10017300C29600D297EF25E0FF00C2970EBE08E8B3
:10018300D296D29600D29700C29722CDEFCDCCEE75
:10019300CC120229ED7807CEC313CE13D8F9543EFF
:1001A3004440FF120169CFEDCF12016902021D7FA6
:1001B300FA1201B97FFACEEFCE1FEE6014E4FCFD14
:1001C300ED64E87003EC640360EC0DBD00010C808A
:1001D300EF22D296D296E4FFFE00D29700EF25E0FD
:1001E300FF3096010FC2970EBE08EED29600D2974B
:1001F30000C29722CBEFCBCFEBCF1BEF60081201EE
:10020300B21201B280F12210083F065B4F666D7D8A
:10021300077F6F777C585E797100C29600D2970092
:10022300D29600D29622D296D29700C29600C29757
:0802330022C28BD2AAD2AF2235
:00000001FF
