:1000000002013E7F32120250E4F51EE4FDAF1E12E3
:1000100002B6051EE51EC3940640F07F017E041261
:10002000028FAF097417FE12028FAF0A7416FE1208
:10003000028FAF0B7415FE12028FAF0C7414FE12F8
:10004000028FAF0D7413FE12028FAF0E7412FE12E8
:10005000028FE4F51E7DFFAF1E1202B6051EE51EDF
:10006000C3940640F07F011202CDE4F51EE4FDAF1B
:100070001E1202B6051EE51EC3940640F07F011253
:1000800002CDE4F51FE4F51EAF1F7401C8EFC808E8
:100090008002C333D8FCFDAF1E1202B6051EE51E5A
:1000A000B406E5120249051FE51FB408D8E4F51EA1
:1000B0007DFFAF1E1202B6051EE51EC3940640F07A
:1000C0007F011202CDE4F51E74081202AF051EE591
:1000D0001EC3940640F27F011202CDE4F51E740E99
:1000E0001202AF051EE51EC3940640F27F01120204
:1000F000CDE4F51EE4FDAF1E1202B6051EE51EC3DB
:10010000940640F07F011202CDE4F51EAF1E1201ED
:10011000F87FC8120250051EE51EB430EF7F0112B1
:1001200002CDE4F51EAF1E1201CA7FC812025005AF
:100130001EE51EB430EF7F011202CD020052787F1F
:10014000E4F6D8FD75811F020185020003E493A344
:10015000F8E493A34003F68001F208DFF48029E479
:1001600093A3F85407240CC8C333C4540F4420C8C5
:10017000834004F456800146F6DFE4800B0102045C
:1001800008102040809002E0E47E019360BCA3FF51
:10019000543F30E509541FFEE493A360010ECF5491
:1001A000C025E060A840B8E493A3FAE493A3F8E480
:1001B00093A3C8C582C8CAC583CAF0A3C8C582C8EC
:1001C000CAC583CADFE9DEE780BECEEFCEEE543883
:1001D000131313541FFFC39406501CEE5407FE74F0
:1001E00001C8EEC8088002C333D8FCF4FE74182F8F
:1001F000F8E65EFD1202B622CEEFCEEE54381313AF
:1002000013541FFFC39406501BEE5407FE7401C81D
:10021000EEC8088002C333D8FCFE74182FF8E64EEF
:10022000FD1202B622CDEFCDCCEECC1202F3ED786A
:1002300007CEC313CE13D8F9543E4440FF12026CCC
:10024000CFEDCF12026C0202FE7FFA1202507FFA4B
:10025000CEEFCE1FEE6014E4FCFDED64E87003EC1D
:10026000640360EC0DBD00010C80EF22E4FEEF3072
:10027000E704D2968002C29600D297EF25E0FF00F5
:10028000C2970EBE08E8D29600D29700C29722CD40
:10029000EFCDCCEECCEC30E40DEFFBEC24FE5407BC
:1002A0002418F8C6EBC6CFEDCFCEECCE0202252542
:1002B0001EF8E6FDAF1E74182FF8C6EDC6EFFEE47B
:1002C0002400FFEE3412FEEF4DFF020225CBEFCBF0
:1002D000CFEBCF1BEF600812024912024980F122D6
:1002E00010083F065B4F666D7D077F6F777C585E19
:1002F000797100D296D29700C29600C29722C29618
:0803000000D29700D296002202
:00000001FF
